{
  "_format": "hh-sol-artifact-1",
  "contractName": "CanopyVault",
  "sourceName": "contracts/CanopyVault.sol",
  "abi": [
    {
      "inputs": [],
      "stateMutability": "nonpayable",
      "type": "constructor"
    },
    {
      "anonymous": false,
      "inputs": [
        {
          "indexed": false,
          "internalType": "address",
          "name": "from",
          "type": "address"
        },
        {
          "indexed": false,
          "internalType": "uint256",
          "name": "amount",
          "type": "uint256"
        },
        {
          "indexed": false,
          "internalType": "contract IERC20",
          "name": "token",
          "type": "address"
        }
      ],
      "name": "Deposit",
      "type": "event"
    },
    {
      "inputs": [
        {
          "internalType": "uint256",
          "name": "amount",
          "type": "uint256"
        },
        {
          "internalType": "contract IERC20",
          "name": "token",
          "type": "address"
        }
      ],
      "name": "bridgeToken",
      "outputs": [],
      "stateMutability": "nonpayable",
      "type": "function"
    },
    {
      "inputs": [],
      "name": "owner",
      "outputs": [
        {
          "internalType": "address",
          "name": "",
          "type": "address"
        }
      ],
      "stateMutability": "view",
      "type": "function"
    }
  ],
  "bytecode": "0x608060405234801561001057600080fd5b50336000806101000a81548173ffffffffffffffffffffffffffffffffffffffff021916908373ffffffffffffffffffffffffffffffffffffffff160217905550610727806100606000396000f3fe608060405234801561001057600080fd5b50600436106100365760003560e01c80638da5cb5b1461003b578063d1c387d714610059575b600080fd5b610043610075565b604051610050919061032c565b60405180910390f35b610073600480360381019061006e91906103c0565b610099565b005b60008054906101000a900473ffffffffffffffffffffffffffffffffffffffff1681565b600082116100dc576040517f08c379a00000000000000000000000000000000000000000000000000000000081526004016100d39061045d565b60405180910390fd5b818173ffffffffffffffffffffffffffffffffffffffff166370a08231336040518263ffffffff1660e01b8152600401610116919061032c565b602060405180830381865afa158015610133573d6000803e3d6000fd5b505050506040513d601f19601f820116820180604052508101906101579190610492565b1015610198576040517f08c379a000000000000000000000000000000000000000000000000000000000815260040161018f9061050b565b60405180910390fd5b8073ffffffffffffffffffffffffffffffffffffffff166323b872dd3330856040518463ffffffff1660e01b81526004016101d59392919061053a565b6020604051808303816000875af11580156101f4573d6000803e3d6000fd5b505050506040513d601f19601f8201168201806040525081019061021891906105a9565b5081600160008373ffffffffffffffffffffffffffffffffffffffff1673ffffffffffffffffffffffffffffffffffffffff16815260200190815260200160002060003373ffffffffffffffffffffffffffffffffffffffff1673ffffffffffffffffffffffffffffffffffffffff16815260200190815260200160002060008282546102a59190610605565b925050819055507fe31c7b8d08ee7db0afa68782e1028ef92305caeea8626633ad44d413e30f6b2f3383836040516102df939291906106ba565b60405180910390a15050565b600073ffffffffffffffffffffffffffffffffffffffff82169050919050565b6000610316826102eb565b9050919050565b6103268161030b565b82525050565b6000602082019050610341600083018461031d565b92915050565b600080fd5b6000819050919050565b61035f8161034c565b811461036a57600080fd5b50565b60008135905061037c81610356565b92915050565b600061038d8261030b565b9050919050565b61039d81610382565b81146103a857600080fd5b50565b6000813590506103ba81610394565b92915050565b600080604083850312156103d7576103d6610347565b5b60006103e58582860161036d565b92505060206103f6858286016103ab565b9150509250929050565b600082825260208201905092915050565b7f416d6f756e74206d75737420626520706f736974697665000000000000000000600082015250565b6000610447601783610400565b915061045282610411565b602082019050919050565b600060208201905081810360008301526104768161043a565b9050919050565b60008151905061048c81610356565b92915050565b6000602082840312156104a8576104a7610347565b5b60006104b68482850161047d565b91505092915050565b7f496e73756666696369656e742066756e64730000000000000000000000000000600082015250565b60006104f5601283610400565b9150610500826104bf565b602082019050919050565b60006020820190508181036000830152610524816104e8565b9050919050565b6105348161034c565b82525050565b600060608201905061054f600083018661031d565b61055c602083018561031d565b610569604083018461052b565b949350505050565b60008115159050919050565b61058681610571565b811461059157600080fd5b50565b6000815190506105a38161057d565b92915050565b6000602082840312156105bf576105be610347565b5b60006105cd84828501610594565b91505092915050565b7f4e487b7100000000000000000000000000000000000000000000000000000000600052601160045260246000fd5b60006106108261034c565b915061061b8361034c565b9250827fffffffffffffffffffffffffffffffffffffffffffffffffffffffffffffffff038211156106505761064f6105d6565b5b828201905092915050565b6000819050919050565b600061068061067b610676846102eb565b61065b565b6102eb565b9050919050565b600061069282610665565b9050919050565b60006106a482610687565b9050919050565b6106b481610699565b82525050565b60006060820190506106cf600083018661031d565b6106dc602083018561052b565b6106e960408301846106ab565b94935050505056fea2646970667358221220a5c089505031f8a34feeee3ab36464f2108642815f837b84efe1932dd15d6f1964736f6c634300080b0033",
  "linkReferences": {},
  "deployedLinkReferences": {}
}