{
  "_format": "hh-sol-artifact-1",
  "contractName": "CanopyVault",
  "sourceName": "contracts/CanopyVault.sol",
  "abi": [
    {
      "inputs": [],
      "stateMutability": "nonpayable",
      "type": "constructor"
    },
    {
      "anonymous": false,
      "inputs": [
        {
          "indexed": false,
          "internalType": "address",
          "name": "from",
          "type": "address"
        },
        {
          "indexed": false,
          "internalType": "uint256",
          "name": "amount",
          "type": "uint256"
        }
      ],
      "name": "Deposit",
      "type": "event"
    },
    {
      "inputs": [
        {
          "internalType": "uint256",
          "name": "amount",
          "type": "uint256"
        },
        {
          "internalType": "contract IERC20",
          "name": "token",
          "type": "address"
        }
      ],
      "name": "bridgeToken",
      "outputs": [],
      "stateMutability": "nonpayable",
      "type": "function"
    },
    {
      "inputs": [],
      "name": "owner",
      "outputs": [
        {
          "internalType": "address",
          "name": "",
          "type": "address"
        }
      ],
      "stateMutability": "view",
      "type": "function"
    }
  ],
  "bytecode": "0x608060405234801561001057600080fd5b50336000806101000a81548173ffffffffffffffffffffffffffffffffffffffff021916908373ffffffffffffffffffffffffffffffffffffffff160217905550610259806100606000396000f3fe608060405234801561001057600080fd5b50600436106100365760003560e01c80638da5cb5b1461003b578063d1c387d714610059575b600080fd5b610043610075565b6040516100509190610117565b60405180910390f35b610073600480360381019061006e91906101ab565b610099565b005b60008054906101000a900473ffffffffffffffffffffffffffffffffffffffff1681565b7fe1fffcc4923d04b559f4d29a8bfc6cda04eb5b0d3c460751c2402c5c5cc9109c33836040516100ca9291906101fa565b60405180910390a15050565b600073ffffffffffffffffffffffffffffffffffffffff82169050919050565b6000610101826100d6565b9050919050565b610111816100f6565b82525050565b600060208201905061012c6000830184610108565b92915050565b600080fd5b6000819050919050565b61014a81610137565b811461015557600080fd5b50565b60008135905061016781610141565b92915050565b6000610178826100f6565b9050919050565b6101888161016d565b811461019357600080fd5b50565b6000813590506101a58161017f565b92915050565b600080604083850312156101c2576101c1610132565b5b60006101d085828601610158565b92505060206101e185828601610196565b9150509250929050565b6101f481610137565b82525050565b600060408201905061020f6000830185610108565b61021c60208301846101eb565b939250505056fea2646970667358221220f1ca6116cc6c3b146505d1a9533d951d6e3e63996675ec1709ccb93f0aeeaa3c64736f6c634300080b0033",
  "linkReferences": {},
  "deployedLinkReferences": {}
}